:100000000C945E090C948B090C948B090C948B094D
:100010000C948B090C948B090C948B090C948B0910
:100020000C948B090C948B090C948B090C948B0900
:100030000C94513F0C948B090C948B090C948B09F4
:100040000C948B090C94BF240C948B090C948B0991
:100050000C948B090C948B090C948B090C948B09D0
:100060000C948B090C94283F0C94FE3E0C948B0945
:100070000C948B090C948B090C948B090C948B09B0
:100080000C948B090C948B090C948B090C948B09A0
:100090000C948B090C948B090C948B090C948B0990
:1000A0000C948B090C948B090C948B090C948B0980
:1000B0000C948B090C948B090C948B090C948B0970
:1000C0000C948B090C948B090C948B090C948B0960
:1000D0000C948B090C948B090C948B090C948B0950
:1000E0000C948B090C942E230C94F3180C94462931
:1000F0000C94833B0C943D330C942E300C94283B91
:100100000C9453320C94F23E0C944D2B0C94CD2055
:100110000C940C340C941F320C9429370C94422EFE
:100120000C9462310C9485340C94AE2D0C940233F3
:100130000C9489150C94761D0C945F150C94AB32BD
:100140000C940F190C942B230C94CA2B0C942D2473
:100150000C948D1F0C946E330C9491320C943F1BB5
:100160000C9421140C94113C0C9461290C946E1F76
:100170000C94581D0C944F1F0C94C91A0C940C32FB
:100180000C94BB1E0C94072C0C9498360C94BE2631
:100190000C94333B0C9453340C94FA220C94E43BAF
:1001A0000C94B3230C94F92C0C948C270C945715B5
:1001B0000C9482260C94B9150C943D290C94C731EB
:1001C0000C94A4170C9413300C94B1340C94AE130B
:1001D0000C94AE220C947D190C94B7360C94B5286F
:1001E0000C94AC1F0C94A0350C9463240C94FE2D3D
:1001F0000C94322D0C94D7180C9490180C941B2846
:100200000C9482350C94133C0C942B210C94CF2726
:100210000C9452340C9405310C94FD300C9404274A
:100220000C94FA340C94CB130C94C4310C94912C90
:100230000C94F2280C941F220C94073B0C94592820
:100240000C9411290C94231B0C9491260C94E91FF7
:100250000C944D370C94B8310C94643B0C944B3691
:100260000C940E1D0C9448370C94313C0C9449149A
:100270000C94C0370C94A8200C94B01E0C94D51488
:100280000C940C160C94C61E0C9424200C94DD3394
:100290000C94A3290C9470340C947E1E0C94FD1EB7
:1002A0000C94AC260C9450350C94B4170400000444
:1002B0000404040000000004040000000004000026
:1002C0000000000000040000000000040002000024
:1002D00004000400000407040400000404040000F7
:1002E00002020000000204070004070704000404DF
:1002F00000000400020204040404040000040004DA
:1003000004040404040400040002030400040400C0
:1003100004000400000400040000000000000000CD
:100320000001000201021603B134020000010000C6
:1003300000B83103000001000000C43104000001D6
:10034000000000C731050000010000000C3206006B
:100350000100015F06C91A070000010000003F1BF1
:1003600008000100011503231B0900000100000023
:1003700052340A000201015A0670340B00030103D3
:10038000120353340C00020102100385340D0002E5
:100390000002160348370E0002000246064D370FD2
:1003A000000300031203C0371000020002100358BC
:1003B0001D11000500050B030E1D12000200024670
:1003C00006DD33130001000115035332140002004F
:1003D000021003211415000200024606AE13160097
:1003E0000400040703491417000500050203CB139A
:1003F000180001000115031F321900080008FA0255
:10040000AB321A00030003F70291321B0002000214
:1004100046068C271C000200021003CF271D000493
:1004200000043E061B281E000100011503AC261F18
:1004300000080008EF02B91520000200021003BEF8
:1004400026210004000348065F1522000300024B2A
:1004500006A41723000300024B06B417240004006F
:100460000442060C1625000100011503571526004D
:10047000030003EC0289152700050003E9022E3072
:100480002800040003E602053129000300024B06A0
:1004900013302A00040004420662312B00010001DF
:1004A0001503FD302C00030003E3023D292D00035A
:1004B00000034D06B3232E00060006DD022D242F77
:1004C000000200024606F92C3000050005D802B5EE
:1004D00028310004000454061129320002000246AB
:1004E00006F2283300040003D502912C34000500E5
:1004F00005D002322D35000100011503A03536006C
:100500000400032F064B363700050005CB02CA2B2B
:100510003800040004420650353900030003EC02A1
:1005200082353A000300024B0698363B0003000276
:100530004B0629373C00060006C502B7363D0003CE
:1005400000024B06D7183E000300024B06F3183F8B
:1005500000080008BD020F194000060006C5027D14
:10056000194100050005B80290184200060006B2C5
:100570000261294300030003F702A329440001009C
:10058000011503833B45000200021003E43B4600D3
:100590000200024606643B47000300024B062B2183
:1005A00048000400043E06E91F4900030003F70267
:1005B000333B4A00010001150324204B00020002D6
:1005C0001003FA224C0002000246068D1F4D000166
:1005D00000011503CD204E000200021003AE224F91
:1005E0000002000246066E1F500001000115031FA5
:1005F0002251000200021003AC1F5200010001153D
:1006000003C61E5300060006AC02FD1E5400030084
:1006100003F702A820550002000246064F1F5600AD
:100620000001000000F23E57000000050000000439
:100630000207040000020002040400040007040092
:10064000000404000000040404040704070400027A
:10065000040404000404000404010704000402006C
:10066000000000000000060002026E0040032F069A
:100670006D001D0632066C000F0338066B00400348
:100680003B066A0014043E0669001704420668002F
:100690000A024606670040024B0666004003480611
:1006A000650040024B06640040024B0663001003E5
:1006B0004D066200110450066100110454066000EA
:1006C0000D0258065F000B015F065E0040015A06EE
:1006D0005D0012045B065C000B015F065B0010020C
:1006E00060065A00150362060000400265065900C4
:1006F0000E0267065800090169065700060000004F
:1007000028292A2B2C2D2E2F5051525354555657F1
:1007100020002300260029002C002F0032000001B9
:1007200000000301060109010F4700440045008055
:10073000013548004400450020010D8800800081FB
:100740000080000E8A008000810020000F8C008055
:1007500000810008000CB300B000B10080033EB47B
:1007600000B000B1002003239800900091008000A9
:10077000249A00900091002000259C009000910098
:1007800008003BA800A000A10080003CAA00A00037
:10079000A10020003DAC00A000A10008005B2801E2
:1007A0002001210180005C2A012001210120005D3F
:1007B0002C0120012101080078DA9D59E96EDB48FF
:1007C000127E951E02C1EE2C1C83A2444AF2223FE7
:1007D0007C25934D9C78E278B3C06241D0644B6A2B
:1007E00098D7B0491F33C8BB4F55575FA4E40CB02E
:1007F0000102B3BBABFAA8E3AB437F0459DB062786
:10080000C18752B42DEF82A3E06E1065913EF04E89
:100810008AA696B0B4CDF313F6F777E7E73FB3F8BF
:1008200078711CB23B510FBD2825CE7EBA65677A20
:10083000F8338B8EA3E4380A6749388B62D82A6F65
:10084000AA2AAB0BD8E48F202BCB26CF7A9E36A2D8
:10085000902C6F86BA7FF32A0F4E567862DFC35111
:100860006996DF335885696F7DB1F4088AC210B488
:100870008D547F44FDE6D5C0DAA12CD3A12586B5E1
:1008800063F86DE0DDB3DD132E708FD41D977DDA34
:100890008BFC5ED2A8EFB25A56A24FCDA94CD4F031
:1008A0007E7D3E5C302F79D6A57237F445F358072C
:1008B00027113EADDE882DDCE8A99C2F6273846C85
:1008C000454A9FC1C9327454755636DB54D4F6F686
:1008D000EADAC1C9DCEDA4AF6C2868983A39C46E75
:1008E0003B35C9BBF1662319C44B4B5C88ADE8B3FB
:1008F000326D867EC2F0909503C771C137D950F62C
:10090000A99DA8B2A7B418BAAC070B50F79CB9FDC3
:1009100038E8B36FDAD15EF9E8F028B1C4BB62B150
:1009200058AE4243DCC9549FCDCD47B1B05FB1FD55
:100930004AECD7D27EF1327BB64A0B4E92B93D4497
:10094000443933425FB8E9B2C867C92C32670395AE
:1009500055CD2A9E52A58FA2DF8182FABB7D7A8671
:10096000D3740FE45D385E21A3E2F1A0EED796A820
:100970006A8775148787AEB17482AA79D38A275E95
:100980004E5454647D964AF13B68653780DFF52903
:10099000AAC6335DC9614AD49E6062F7B6F6B13A21
:1009A000A0F6FC19CCD9EDA195BE1BA66600337B41
:1009B00076B0703786E74E37460FEEC5034F776245
:1009C000BB532F9CAF7C7AF0836DC9F7E5C5EC5A19
:1009D000DA3FB79C64331F711ADF3BC4AC97D24A2D
:1009E0006EDFBCFA0780CD7CCC8BAA0531A4B9B4EC
:1009F000663277F62CFBE53AB2EAC9AD85CABCBCD3
:100A0000B7DFA2B09FCF759E8E8D91E55591EED93F
:100A100067E89DC0115AEDD561A8AD8915A2339F35
:100A200004398AD8510DA5E4DEA6917B58BFE35D59
:100A3000D50012B40725EA2F3BA126EED97D950FEC
:100A400059676DA37B4AF76084F576122DAF1715B1
:100A5000270B73A0D577280F27567874C1EF06B0FF
:100A6000E70682CADA8C6097ADB265D2CFCC9275B8
:100A70003C0344EF0ADEE17900EF1DC14D64081E1E
:100A80003BD1F33D0A345A229C1D05BCE2DD96D7CA
:100A9000F9738AB804978029C2A874D7547C0FFDD3
:100AA0006556B5BE03E8B1C5FE717480AB3B5CA46E
:100AB000E75A197762BBE51D3E4236040E51EC0E33
:100AC00057B107EE94F5DC0A2802F0D8088806E052
:100AD000D229C990E55D4E1673146CC19BD53D417A
:100AE000C87AA468C01D6838B4A805F0C3A3404301
:100AF0006B2AE1BC142CD0460EFC263927D1840C7D
:100B00005560C89C3A121022C252D51462F39C82DE
:100B1000AEED5E1D572EC57400841BE0AAF6B235FB
:100B2000B1910EC7F43897965C834648848A7D90CD
:100B30003E12C250E118C808FFA27AB9245B5F4494
:100B40008E4B369BFE31EBB8CF0EFE697DB2C8CC22
:100B5000E7A19D929876D2B6347DFE029F5FF0BAEF
:100B600087C7B366B381039553DBC80BEB264AC036
:100B7000DAF08259F53B3870D794851AFCD85018B2
:100B8000EFBA6664382BB05A130394AEACC9C4FEF6
:100B9000CAD016CE9C2807DA0DDE5B62300CB2BBE1
:100BA000496232326A10C97A42A7EC74700099AC7B
:100BB0002CC13477F93F1DA9728EA4238B1B41FEF3
:100BC000B505C61DCFEFBD8C673E337798243CF644
:100BD000066D0358353DDF0B8589D960920B4CA417
:100BE000B19A4DE8948627AEBB8A2CD128EC4FF6FB
:100BF0005AAEC66453C12E97667D92184CF789276A
:100C0000747B1B5955EF45D617125D840E08A462FC
:100C100043E25DDA07D1CE1321C18B43437028D85C
:100C2000BC7088A7E691966900410EB0AFF0949C25
:100C3000908E067E2851B567347E86338B0DCB248B
:100C4000C1B1E4D6B2C0BB2D314654E6323ADE51D2
:100C500010318EBE53A0017F05C0348846E5562072
:100C600084447F2A7E42E7E979C000A2421AFF0D40
:100C7000932C1BEE3DDF23522F500999DD73949D79
:100C80000153424C357FD257809CC18298E828ACF2
:100C9000CC88C8C8E32F323D900A188F977461FD45
:100CA000B371FEE5F06439233A0F91BCD5F9C2ACBB
:100CB0008E801DA734B04348E11E2C034BE2580E32
:100CC000A17A256463B0BC6AA438948DED6D9AE86E
:100CD0007BBCFC8E395801257A3F8A97F17A4C7596
:100CE000385CC62BA452295D8A3119505860826C39
:100CF000FD66B676042A1340EBA510C06C44F0E202
:100D00000370C0963A211B895A452C1B50291C8020
:100D1000463437CA107DFA80078049AC1C5DEF2746
:100D20007ABC6D3A9D6590F7AAB13512FED40A508F
:100D3000899FD3ACED4E9357F844006B149C0EF989
:100D4000B1E7038BEF2679C4A6C0E9C5797A75FAB5
:100D50001F4C0931B73DBBBD49AFDF7FBA41480BDE
:100D60004E82EBB3F9D1F55904FF6781B7D83FAA9A
:100D7000C58BF0E8FA0217CE3F7E3EFF90BEFD72B3
:100D8000F92BBA4BA8FE1D0557E7B74095F515DFBF
:100D900066519C844078FDED8A4E8BB048FA72799A
:100DA0007EF9FEDF97E9B7F79F2E3E7F43B54538C2
:100DB0007973F90526E916BC135989675DC25997FD
:100DC0007816ACBE3FFD989E9DDE5EE03674D4CDB5
:100DD000D7D3AF37E9CDEDD5CDAFB07273892BC97D
:100DE00077CC0407C84D55F5A45A203AE3C14FF516
:100DF000861068C0A6717C7D1A0627FF0D8F56FFEE
:100E0000836B9EE1F78ABECFF11B40400D2E700030
:100E100039A41A5CE2601ED1E02D0E169AFF9D1ACD
:100E2000E80D7EC141AC37F8170E969AE7833A4633
:100E3000F37C5403E4F93E8206281D54F766369F7E
:100E4000CFE1C6474126E370B12C545AD4973C0EEB
:100E500067D11D3C5873E9E729FDE1F330B408344C
:100E6000C10E4A8054145AE94C19C786023F750CCA
:100E70004E4BB4F16766D2E38200F33CAB59DDF42C
:100E80000C8C9D216030C0380236A66C963DEE0475
:100E90007C93ED49D682F7C04984C88677905C057B
:100EA000BF6EC6364DC7C00CFE69C642E26AA1E6F7
:100EB000D594241703D6BFF51810A0F6DBC2852001
:100EC000BDCB7AA4CEF435A9D2A58C5F134B2445B3
:100ED00093A7BA846655EC505BC34D79CD4C31680D
:100EE000F9C1E8CEA94DC6DAAC0393A3E450A5FC42
:100EF00066A1E310C264AF9A656F33786FC1FA865A
:100F000029A4C0E6877270EA94BDA700CB4C37C90C
:100F100035B728CE515665A8747F4E551B6E0EC846
:100F2000F02A59C5214852D16916ABE6819BDB30C6
:100F3000EC4BA047BB65DBC5B07D0B42FCBD759D8E
:100F4000C7DAF3E7DE0540808CCC0ECB40338BED67
:100F500006831BD17234AF939F7C275ACDB8988DEE
:100F60000954DAEEDE24A991612846D98DB70B1613
:100F70003857D913DAE9CA08949A0B57505A645B68
:100F8000CEA0EA84586414065B5E0989D6242195B4
:100F90002D8612AB5E60C6D0CD342A2AC3E70F1C63
:100FA000358151FB65865DD615CAD83535D6D657FD
:100FB000287E95CD30F8EA3665F348E9D027B0F2BF
:100FC0008CD173D0BD14AA2C260B60F7B48005BC5D
:100FD000BF20EA969206EA9FA9A51A6FEAA6170A09
:100FE0003DADF5B75DB305615670F50CDFB681A870
:100FF0000BB7046173745CEC557EE1FA5168ACE8A0
:1010000059700C8A1AD480968CE5DD8D25D8930E04
:101010007B146509C12887FD466D280AAF8ED34A27
:10102000E8071C18C16EC00B4987EA024821AAA133
:101030003273C639F056A6D5A48A5ED84CF9ADC233
:1010400020BF017CA31DB96F1AB6C9D4EBE865585F
:10105000E37FF54D0A450684AAB9462DB1AF4A1E75
:10106000C809715872D5B3B8ADE5D0622CE6E4D4A6
:101070000A49B197FD2DEBF35DD16C498A3F51458B
:10108000A8BAE950310DF53D6C8C88404D5A6F5E21
:10109000BA05B04CF211800C0948871E0C511EEAAB
:1010A0007AA9F5EBBA5504584D5D02C63DC006D984
:1010B0005D69A0CB3E9F2A7FA6930FEA914F3A0825
:1010C00027EC33802704C03BCC1736D841923F51E0
:1010D0005AA27E00B038AA7F1628A82D24B10EAFE0
:1010E0000121C8647258C6254CF000FC55ABF7D3FB
:1010F000E9F907EAE0991E96CAD3509A65D6613895
:10110000C1BCF44032822A2483C78EA04660722775
:101110004CC1205AED75CD305C41C6309FADE258D0
:10112000453F3D4854F8A341122B7B8041922CE16E
:101130007BFE1D762A450EA206FE007F217977FDF3
:10114000F1611EA842A20510E1F4838829AC47850D
:10115000A672FEF45025F33AF27ED818B1645ED937
:10116000CCD40A65AAAF55275E552C2E315CDBEE38
:101170001D8433DD5F52A9A36A43E19CD1B3CAC782
:101180000167525B2101B7EA40AA6AFC47D7D61C27
:10119000FA2375A7BFC668627A7F121CC2B6F2D660
:1011A0005EEB6CB433D4E2808BFB67F89D39D87862
:1011B0003E73EDA8D408DA2BAED5D8C865E95A3EFF
:1011C0001EADEDFD50B27F8CB4D8BB722261D37CD2
:1011D00086A4027953F062EBC07B806904F9F208BF
:1011E000BDF68E1689A9A3863C573D2C7C1EA20A0B
:1011F0005CD36FA3AE17CA5FC0A121ED82F2C82FE6
:101200005724C6E83AE793FED06BAC347C9E51532A
:10121000C115D0BAEC374501159FFE96778382FC45
:1012200082BA3090F9004AA42626496DB0AA1072FD
:10123000686ADA468745B83E5491EE29D2EF3A8C77
:10124000343A1B97807F6901AA8803F050C9E26A8B
:101250004999AA74862B874AFF91BF917D86AEAAD1
:101260009B947CD488136884D10444C61A3DE8DB7F
:10127000034506ADE6C85582FB4FC01A90AE1FFB72
:10128000D59D33B53CB3A5E6E1C6A3677998505028
:101290003F99D1EF35838F12330031FD1B3080D859
:1012A00043783C8B8E43383779BD4D8A6518C661CB
:1012B000147CFF130C3120A1000B000011241FBE71
:1012C000CFEFD1E2DEBFCDBF00E00CBF14BE0FB642
:1012D000F894A895809160008861809360001092D6
:1012E00060000FBE12E0A0E0B2E0E0E6F0E800E04F
:1012F0000BBF02C007900D92AA32B107D9F723E0C5
:10130000AAE2B2E001C01D92A939B207E1F70E943A
:10131000F0250C942E400C940000CF93DF93CDB7B2
:10132000DEB76B970FB6F894DEBF0FBECDBF0E943D
:10133000DD256B017C019E01275F3F4F398B288B98
:1013400080912602882309F4E9C60E94DD25C61A89
:10135000D70AE80AF90AF89480912602882351F006
:101360008FEF8093260278940000F89480912602F3
:101370008111F9CF78940E94DD25A7019601260FEF
:10138000371F481F591F2E8B3F8B488F598F81E085
:101390008093260280914C02882309F442C0109267
:1013A0004C028FEF8983AE014F5F5F4F7A0102EBF2
:1013B00016E06CEA76E2C7010E946E1B6C01892B75
:1013C00081F1D60156968C9182FFF3CF0E94DD25E4
:1013D000F894F60137892689422F4B7F468B789403
:1013E0009F938F937F936F931F923F9321701F92D0
:1013F0002F9389811F928F931F930F930E940D3912
:101400002DB73EB7245F3F4F0FB6F8943EBF0FBED7
:101410002DBF6CEA76E2C7010E946E1B6C01892B1E
:1014200081F680914D02882329F110924D028FEFB1
:101430008983AE014F5F5F4F7A010CEA16E06EEBD5
:1014400076E2C7010E946E1BFC01892B99F0958DF5
:10145000868D9813F4CFF894858D968D891709F4AD
:1014600063C778946EEB76E2C7010E946E1BFC01A5
:10147000892B69F780914E02882311F110924E0258
:101480008FEF8983CE0101967C010AE916E062EFB5
:1014900078E2C7010E946E1B009791F0DC0158961C
:1014A0002C912F3FA1F7F894FC0126852111FFC54F
:1014B000789462EF78E2C7010E946E1B009771F783
:1014C00080915002882309F43FC0109250028FEFA0
:1014D0008983AE014F5F5F4F7A0104E916E062E352
:1014E0007DE2C7010E946E1B009771F1DC011E9620
:1014F0002C911E9723FFF3CFF894FC012685277FBC
:10150000268778949C01265E3F4F3F932F935096F9
:101510008C918695869586951F928F9389811F92CF
:101520008F931F930F930E940D39EDB7FEB7389636
:101530000FB6F894FEBF0FBEEDBF62E37DE2C701B8
:101540000E946E1B009791F680915902882309F43E
:101550004AC0109259028FEF89839E012F5F3F4F3F
:10156000790108E816E062E875E3C7010E946E1B86
:10157000FC01892BC1F1848D80FFF5CFF894948113
:10158000258136814781548965897689A789B08DFF
:10159000D18CC28CB38C848D8E7F848F7894BF92D3
:1015A000CF92DF92BF93AF937F936F935F934F93ED
:1015B0003F932F939F9389811F928F931F930F9334
:1015C0000E940D394DB75EB7405F5F4F0FB6F8947C
:1015D0005EBF0FBE4DBF62E875E3C7010E946E1B80
:1015E000FC01892B41F680914F02882309F456C0F3
:1015F00010924F028FEF8B87BE01655F7F4F1B01FB
:10160000BCE09B2E17E0812E63EA79E2C1010E94C3
:101610006E1B5C01892B09F441C0D50159968C9150
:10162000599780FFF1CFF894F5014480558066808A
:101630007780818D8E7F818F789458968C918130C0
:1016400009F49AC308F478C3823009F435C38330AF
:10165000D9F6CB8419821A829E012F5F3F4F42E058
:1016600061E0F501848995890E94AA1609811A8191
:10167000102701271027F02FF670EF2E20E030E022
:10168000B301A201C5010E941B2A63EA79E2C101EC
:101690000E946E1B5C01892B09F0BFCF80915B0219
:1016A000882301F110925B028FEF8B879E01255FEB
:1016B0003F4F1901E9E0BE2E8E010F5F1F4FF2EF81
:1016C000CF2EDD24DA9406C0D7011E968C911E978A
:1016D00080FD81C364E67BE3C1010E946E1B7C0137
:1016E000892B91F780915C02882309F463C01092E2
:1016F0005C028FEF8B87FE013B961F019E012F5FDF
:101700003F4F690163E37BE3C1010E946E1B7C01D3
:10171000892B09F44FC0D7011E968C9182FFF2CF1E
:10172000F894F7014480558066807780B1881686EA
:10173000118A789480859185A285B385481A590AC3
:101740006A0A7B0A87010E5E1F4FD701BB2099F002
:1017500056968C91F701E80FF11DBFEFB78B108EF5
:10176000118E8D5FF701868B813308F0EFC0BA943C
:10177000D701B110EDCF1F968C91882309F43DC29B
:10178000813009F45FC4823009F47BC5F701868992
:1017900090E0C1970CF4B6CF6B85C70142960E94CA
:1017A000D32163E37BE3C1010E946E1B7C01892B83
:1017B00009F0B1CF809145028823D9F010924502FB
:1017C0008FEF8F879E01215F3F4F790162E7962E51
:1017D00074E7B72E06C0D60152968C91529780FDC1
:1017E00071C36DE87FE1C7010E946E1B6C01892BFC
:1017F00091F780914602882309F1109246028FEFFB
:101800008F879E01215F3F4F790127E0422EAE0175
:101810004F5F5F4F4A013FEA532E48EA642E06C0ED
:10182000D8011E968C911E9780FDAEC36EE67FE1B7
:10183000C7010E946E1B8C01892B91F78091470292
:10184000882309F489C0109247028FEF8983FE0133
:1018500031967F016FE47FE1C7010E946E1B6C012E
:10186000892B09F479C0D6011E968C9180FFF2CFA6
:101870009980C6010E94F921F894F60196859E7F11
:101880009687789483FFE6CFA388B12CB4E1AB0EA2
:10189000B11CAC0CBD1C0484F585E02D1D868501B2
:1018A00022E0AE01435F5F4F61E080810E94C51B73
:1018B000D6011C96ED91FC911D9781E08E870E5FFD
:1018C0001F4F22E0AE01425F5F4F61E080810E94C6
:1018D000C51BF60183898C5F838B8601045B1F4FD8
:1018E000D8018C9082FE28C0F50142805380542498
:1018F00045245424052C000C660877084114510433
:101900006104F0E17F0608F062C40E94DD2581FCDD
:1019100053C5F601E15BFF4F208131814281538144
:10192000241535054605570508F455C5882D8D7FC6
:10193000D8018C93F601838990E0C0970CF48ACF8C
:10194000692DC6010F960E94D32184CF6B85C801F3
:101950000E94D321BA940CCFA89580917502882358
:1019600029F080E480936000109275021091360394
:10197000112309F46EC000912A0200FD12C0153037
:1019800008F467C0D0907602BD2C8BEF8D0D8C33A0
:1019900008F4EBC3EEE7BE1609F4A4C5016000939A
:1019A0002A02412F50E06EE770E086E792E00E9445
:1019B000FF3F009739F00E7F00932A02865792402E
:1019C00011E0180F01FD0CC0902F926090932A0235
:1019D00089E296E09F938F930E940D390F900F90AC
:1019E000D12ECC24CA9420E0ED2CF12C19C0822FEA
:1019F00090E0402F50E0481B590BB701680F791F4A
:101A00006A587D4F8A589D4F0E94154010922602B9
:101A1000202F8FB7F89490913603191761F08FBF7C
:101A200010913603012F0D1911F78FB7F89490918B
:101A300036031913F4CF009336038FBFF1E0CF12B2
:101A400008C089E296E09F938F930E940D390F9012
:101A50000F900E94DD256B017C012E893F89488D06
:101A6000598D621B730B840B950B80903302909001
:101A70003402A0903502B09036023FEF831A930AE9
:101A8000A30AB30A8092330290923402A0923502E4
:101A9000B092360240902F02509030026090310296
:101AA00070903202460E571E681E791E40922F0219
:101AB00050923002609231027092320261157105CB
:101AC00041E08407910508F02EC39B01AC010E9400
:101AD0005C3FDC01CB0181509F4FAF4FBF4F892F3F
:101AE0009A2FAB2FBB2740912B0250912C02609173
:101AF0002D0270912E02840F951FA61FB71F841709
:101B00009507A607B70718F48FEF9FEFDC018093C6
:101B10002B0290932C02A0932D02B0932E024091A1
:101B200055025091560260915702709158025C54D0
:101B30006B437B4F2F2DC416D506E606270B27FDDA
:101B4000FFCBBF93AF939F938F937F926F925F92E0
:101B50004F92BF92AF929F928F9282EE96E09F93A8
:101B60008F930E940D396DB77EB7625F7F4F0FB6BE
:101B7000F8947EBF0FBE6DBF8091550290915602C2
:101B8000A0915702B0915802C816D906EA06FB0682
:101B900098F48091510290915202A0915302B09119
:101BA00054020196A11DB11D8093510290935202DF
:101BB000A0935302B0935402C0925502D0925602A1
:101BC000E0925702F092580210922B0210922C02CF
:101BD00010922D0210922E0210922F0210923002BB
:101BE000109231021092320210923302109234029B
:101BF0001092350210923602A3CB82E389831A82B7
:101C00000E94DD254B015C01960142E061E0F70195
:101C1000848595850E94AA160E94DD25DC01CB01F2
:101C200088199909AA09BB0981329340A105B10518
:101C300008F02EC2998197FD67C284189508A608FE
:101C4000B708D70150968C918823C1F02FEF280F49
:101C500041E050E002C0440F551F2A95E2F7052EDF
:101C6000000C660B770B840E951EA61EB71E04C0D3
:101C7000B694A794979487948A95D2F7BFEF8B1662
:101C80009104A104B10408F0B0C22A8130E0220F0F
:101C9000331F892F90E0982F8827990F822B932B41
:101CA000F7012689E20FF11D878A808F918F2D5FC2
:101CB000D70156962C936ACDCB8481E089831A8212
:101CC0001B821C829E012F5F3F4F43E061E08489AD
:101CD00095890E94AA1669817A818B819C810E94D4
:101CE0008E3FBB27A92F982F872F9C01AD0144273A
:101CF00055272A8B3B8B4C8B5D8B89821A829E01E8
:101D00002F5F3F4F42E061E0D50154968D919C9149
:101D100055970E94AA168A81982F9C7F8A89817084
:101D2000E92EE82A0A891B892C893D89B301A20181
:101D3000C5010E941B2A68CCCB8419821A821B829F
:101D40001C829E012F5F3F4F44E061E0F5018489D2
:101D500095890E94AA1669817A818B819C810E9453
:101D60008E3FF62FF770EF2E8B019C01B301A2017D
:101D7000C5010E941B2A48CC2B852A8B99821A8286
:101D80001B821C829E012F5F3F4F44E061E08489EB
:101D900095890E94AA1669817A818B819C810E9413
:101DA0008E3F6B017C01BFE0B9831A829E012F5FD9
:101DB0003F4F42E061E0F501848995890E94AA16AF
:101DC000970186013327CA88EA80B301A201C501C1
:101DD0000E941B2A19CCAB84F8012B2D11922A9555
:101DE000E9F7C982980149E061E01C968D919C91C8
:101DF0001D970E94AA16D70153968C9190E0FC0182
:101E00007496EE0DFF1D3B81232F207FE1F0203FD4
:101E1000D1F0D482D382D282D182F701E80FF91FA8
:101E2000D48AF70183898B5F838B8F3208F013C2CA
:101E3000D7011E968C911E978E7F1E968C93C7019C
:101E40000E948F2247CC2D81422F407F09F0BBC1D9
:101E50005F81452F407F11F0403FD9F648854039DA
:101E6000C1F649854F77942EB0E2B41790F2D701AE
:101E7000A80FB91F4A8154964C938C8181838E811F
:101E80008283852F90E03F71AC01440F551F42952E
:101E90005295507F5427407F5427342B3383880F2B
:101EA000991F880F991F80762F71822B8483D70109
:101EB00053968C9153978B5F53968C938F3208F483
:101EC000D0C1CAC1AF8450968D919C915197C09753
:101ED00058F1B982D6011C96ED91FC911D978601AF
:101EE000085E1F4F20E3AE014F5F5F4F61E08081CE
:101EF0000E94C51B80E3F601878B80899189C0977A
:101F0000918B808B6A2DC60143960E94D321D60106
:101F100050968D919C915197C09770F11092260226
:101F200081E0809345025DCCD6011C96ED91FC9139
:101F30001D979B868E010F5F1F4F22E0AE01455F0C
:101F40005F4F61E080810E94C51B89818F7190E0A5
:101F5000982F88272A81822BF60126853785281716
:101F6000390710F497878687D60151969C938E93F4
:101F70005097C0970CF0ADCFF60182898E7F828B8F
:101F8000C6010E94DB222DCC2F84F401242D119256
:101F90002A95E9F75B861C8669825396AC90539725
:101FA000B12C650134E1C30ED11CC00ED11E9401C9
:101FB00047E061E01C968D919C911D970E94AA16A6
:101FC0009E01255F3F4F42E061E0D8011C968D9154
:101FD0009C911D970E94AA168C85B82FBF733B2E2B
:101FE0008074782EF801EA0DFB1D8A81848B8B8129
:101FF000F60181838C8182838D8183838E818483AA
:102000008F818583D80153968C9153978A5F53961D
:102010008C938E3208F0AEC1772031F0F8018189BF
:1020200092890196928B818B332009F49DC1D8014E
:102030001E968C911E978E7F1E968C93C8010E94CF
:102040008F22F4CB8FE789838EEF8A830E94DD2570
:102050006A8B7B8B8C8B9D8B960142E060E0F70155
:10206000848595850E94AA160E94DD254B015C019E
:10207000DC01CB012A893B894C895D89821B930B4A
:10208000A40BB50B81329340A105B10508F4BBC088
:10209000D70156968C91F701E80FF11DBFEFB78B72
:1020A00092E0908F118E8D5FF701868B6FCB318D13
:1020B000308F7894AC01415F5F4F5F934F931F92D5
:1020C0002F93FC0187891F928F9389811F928F9391
:1020D0001F930F930E940D392DB73EB7265F3F4FD8
:1020E0000FB6F8943EBF0FBE2DBFD1C928893989DC
:1020F000E217F30709F008C1809590E02A8530E0E7
:102100008217930709F43CC1D70156968C91F701C9
:10211000E80FF11DBFEFB78B93E0C3CFCE8ADF8A04
:10212000E88EF98E34C96115710550E18507910576
:1021300008F0EACC8B019C0101501F4F2F4F3F4FFD
:102140005527432F322F212F0E945C3FDC01CB010A
:1021500040912B0250912C0260912D0270912E0221
:10216000840F951FA61FB71FCACCC09077028C2D75
:10217000807F803109F00ECC1D1508F46ACC8D2DBE
:1021800090E0FC01EB58FD4F20812E3709F002CC86
:102190009C012D583D4F4901FC01EC58FD4F9081A9
:1021A000D9018C91292F30E07901F82A6DEF6D0D5E
:1021B00086E792E00E94F325E816F90609F49EC12D
:1021C000B0907602E7CB403F09F023CE41CE1C927F
:1021D000F601E25BFF4F60813497808191810E941C
:1021E0004D28D60153968C91A7CBF7018689E80F2D
:1021F000F11D2FEF278B91E0908F118E8D5FD7010E
:1022000056968C93C3CA80EC89831A82960142E069
:1022100061E0D7011C968D919C911D970E94AA1692
:1022200049812A81942F9227892F82958F70982730
:10223000892F869586958927982F9695892780FDE1
:10224000B3C046FFE8C0F7018689E80FF11D2FEF04
:10225000278B35E0A2C0912C6A2DC7010F960E94F2
:10226000D321BEE1B91508F074C2F70181899289C2
:102270000196928B818B1092260281E080935B0203
:1022800029CAD7011C96ED91FC911D971481B2814A
:10229000BA8B038140E06B2F702F812F0E94E91CC5
:1022A0000E94DD254B015C01E0E18E0E911CA11C1A
:1022B000B11C0E94DD252B2D86169706A806290B3A
:1022C00027FFF7CFF89441E06A89702F812F0E9491
:1022D000E91C0E94DD254B015C017894D601EAE0FF
:1022E0001D92EA95E9F7F4E8F98323E22A8396013F
:1022F0004AE061E0D7011C968D919C911D970E9448
:10230000AA16FE01339685E09191892728E030E0F6
:1023100005C0880F2150310909F4E8CE87FFF9CFB5
:10232000880FBDE18B27F6CF548965899089218973
:10233000328943898F5F858F78946F935F934F9332
:102340003F932F939F9389811F928F931F930F9396
:102350000E940D396DB77EB7665F7F4F0FB6F89458
:102360007EBF0FBE6DBF6BC81092260281E08093C6
:1023700046025CCA622DC8010F960E94D3214CCE42
:10238000898584FF38C08B8187FD87C0F7018689E6
:10239000E80FF11D2FEF278B34E0308F118E8D5F0A
:1023A000D70156968C93F2C9F7018689E80FF11D83
:1023B0002FEF278B93E020CFF601ED5AFF4F2081BE
:1023C000318142815381E92F621773078407E50B3E
:1023D000E7FF9FCAAFCAF601ED5AFF4F60837183D2
:1023E00082839383369760813397808191810E94A5
:1023F0004D2880E09DCAD70156968C91F701E80FD1
:10240000F11DBFEFB78B25E0208F118E8D5FD701B7
:1024100056968C93BBC984189508A608B708F7018F
:1024200030893323C9F08FEF830F61E070E002C081
:10243000660F771F8A95E2F7CB01092E000CAA0BD5
:10244000BB0B880E991EAA1EBB1E04C0B694A7948F
:10245000979487943A95D2F77FEF87169104A10459
:10246000B10408F041C0842F90E0AC01542F442700
:10247000550F550FF4E02F9FC0011124842B952B8D
:10248000D70156962C91F701E20FF11D878A808FB4
:10249000918F2D5FF701268B79C984189508A608BE
:1024A000B708B1E58B16B5E59B06A104B10408F0A9
:1024B0009CCE2C8130E0220F331F90E0982F88278C
:1024C000990F822B932BF7013689E30FF11D2F8192
:1024D00026952F73278B808F918F3D5FD70156965E
:1024E0003C9354C911E07CCAD70156968C91F701F0
:1024F000E80FF11DBFEFB78B91E0D3CD802F8D7F1B
:1025000080932A0280910902C81221C181E08C0DBA
:102510008F70806180930902B8E78B16B2E09B064A
:1025200009F008F4FBC008E712E087E2282E86E0F5
:10253000382E99E0C92EADB6BEB6D8012C9127FD34
:10254000B7C00F5F1F4F30E02115310509F4FCC003
:10255000F101859194912817390708F0F5C0A90178
:10256000440F551F440F551F440F551F420F531F53
:10257000FA01E65EFC4FE4916DB77EB784E0E89F18
:102580006019710911240FB6F8947EBF0FBE6DBF9C
:102590008DB79EB70196FA01E45EFC4F6491FA0193
:1025A000E35EFC4F45915491FA01DA01A60FB11D8B
:1025B000BD01AC019B8B8A8BE617F70709F48AC033
:1025C0008016910608F471C0A491A53030F1A730AF
:1025D00009F06BC07801BFEFEB1AFB0AD8014C90F1
:1025E0008701040D111D8016910608F45EC0512C60
:1025F000612C712CDA014D925D926D927C92139751
:102600002701612C712C14964D925D926D927C92F3
:102610001797485F5F4F3196CFCF7A01B4E0EB0E4A
:10262000F11CC80101969B8F8A8FD8011C91912FB4
:102630009F77492E512C612C712C012F007600368A
:1026400009F441C017FF6DC00A8D1B8D0F5F1F4F2E
:10265000D80111978C91440C551C661C771C440CB6
:10266000551C661C771C440C551C661C771C440CBE
:10267000551C661C771C440C551C661C771C440CAE
:10268000551C661C771C440C551C661C771C982F27
:102690009F77492A87FDDACFDA014D925D926D92DC
:1026A0007C921397A701319687CF87E00E94EB3E7B
:1026B0002F77B0E82B9F90011124F8018181282BFE
:1026C0000E5F1F4F41CFB0EE4B2A55245A94652C14
:1026D000762CB8CF8A899B8940912702442351F0F8
:1026E000C29EF001C39EF00D1124E55EFC4FE49103
:1026F000E0FF1AC0C29EF001C39EF00D1124E15EFE
:10270000FC4F25913491F90119950FB6F894BEBE8E
:102710000FBEADBE0815190508F40DCFCC24C39427
:1027200062C90A8D1B8DB8CF809128021F928F93AA
:10273000E4EFF6E0FF93EF930E940D390FB6F894A3
:10274000BEBE0FBEADBEE6CF85E00E94EB3E1D2DA6
:102750003FC9F1E0F91508F48ECD6ACBCF93DF9332
:10276000EC016BEC73E188810E94B42EFC018C813A
:102770009D81AE81BF81892B8A2B8B2B51F420E068
:10278000F89494A59D7F922B94A77894DF91CF9194
:10279000089522E0F5CF0F931F93CF93DF938C0121
:1027A0004DE250E06BEC73E1FC0180810E94852ECC
:1027B000EC01F801848518160CF041C064E06CA7A8
:1027C000F80184810E948B246A8F7B8F8C8F60E05C
:1027D000F80180850E948B246D8F7E8F8F8F80E023
:1027E00090E0A0E0B0EC88A399A3AAA3BBA3F80152
:1027F00080899189A289B3898E8B9F8BA88FB98F8D
:102800006BE070E0CE0184960E94162F8E899F891E
:10281000A88DB98D8997A105B10548F085ED94E1A2
:102820009B838A83DF91CF911F910F9108958CA58F
:1028300080618CA7DF91CF911F910F91089560E087
:10284000BECFCF93DF93EC016BEC73E188810E94E4
:10285000B42EFC018C819D81AE81BF81F8944685A8
:10286000578560897189452B462B472B79F48483E2
:102870009583A683B783828B938BA48BB58B84A51A
:10288000877F84A77894DF91CF91089586E10E9495
:10289000EB3E0F931F93CF93DF938C016BEC73E1AF
:1028A000DC018C910E94B42EEC010E94302FFC01BF
:1028B000D80114964D915D916D917C91179742834B
:1028C00053836483758318968D919C911997918792
:1028D0008087892B09F466C0D8011C968D919C9144
:1028E0001D97978386831286F8948CA5282F2170D4
:1028F00081FB992790F9291729F091E08927928582
:10290000916092874E855F8568897989452B462B32
:10291000472B59F583FD19C08CA7118210828CA119
:102920009DA1892BA9F1AEA1BFA1ED93FC93FFA3BB
:10293000EEA3CE010E943938CE010E94863C7894E5
:10294000DF91CF911F910F9108958091480290914E
:10295000490291838083F0934902E093480278947E
:10296000DF91CF911F910F9108958CA71182108252
:102970008CA19DA1892B89F0AEA1BFA1ED93FC9301
:10298000FFA3EEA37894DF91CF911F910F9108954B
:10299000FFA3EEA3FDA3ECA3CCCFFFA3EEA3FDA367
:1029A000ECA3CDCF87E10E94EB3ECF92DF92EF9276
:1029B000FF920F931F93CF93DF93EC01EA8DFB8D72
:1029C0008C8D80830E94DD250E891F89288D398D8D
:1029D0006B017C01C00ED11EE21EF31E8E859F8509
:1029E000A889B9890197A109B1098E879F87A88B0A
:1029F000B98B80FF0EC0CC82DD82EE82FF8281E047
:102A0000DF91CF911F910F91FF90EF90DF90CF90CA
:102A10000895892B8A2B8B2B59F1488559856A8516
:102A20007B858A899B89AC89BD89840F951FA61FE8
:102A3000B71F8A8B9B8BAC8BBD8B0C851D85012EA4
:102A4000000C220B330B400F511F621F731F48876E
:102A500059876A877B872B2F8C159D05AE052F091B
:102A600027FDC9CF8C839D83AE83BF8381E0C8CF10
:102A7000CE010E943938811102C080E0C1CF4C8163
:102A80005D816E817F81972F4C155D056E059F09D5
:102A900097FFB6CF4C195D096E097F094038514C3C
:102AA0006F4F7F4F0CF0A7CF88E10E94EB3E46E0CE
:102AB00050E069E875E1FC0180810C94852ECF928D
:102AC000DF92FF920F931F93CF93DF93EC0169E89E
:102AD00075E18C810E94B42E6C01F8840F2D10E0FA
:102AE000A8014D5F5F4F6FE575E188810E94852EDB
:102AF000FC01D182C082F2826C857D85A80103969B
:102B0000DF91CF911F910F91FF90DF90CF900C94A8
:102B10000C40FF920F931F93CF93DF938C0146E0FD
:102B200050E069E875E1FC0180810E94852EEC018E
:102B3000F801F08461E0F11060E0F80184810E9406
:102B40008B246A837B838C838D81F11009C091E093
:102B5000892B8D83DF91CF911F910F91FF90089565
:102B600099E0892B8D83DF91CF911F910F91FF9079
:102B700008950F931F93CF93DF938C016EEB76E252
:102B8000FC0180810E94B42EEC010E94343C9091A3
:102B900000028A8D981303C08FEF80930002F80122
:102BA00084819581A681B781888B998BAA8BBB8BF9
:102BB0008C839D83AE83BF8380859185A285B385F9
:102BC0008C879D87AE87BF8784858E8F91E0980F15
:102BD0009D8F4089518962897389488759876A879F
:102BE0007B87248935893F8B2E8B208D318D398FC2
:102BF000288F948D9C8F811105C0DF91CF911F91FB
:102C00000F910895CE01DF91CF911F910F910C94F8
:102C1000863C8BE10E94EB3E8F929F92AF92BF92D7
:102C2000FF920F931F93CF93DF93EC0169E875E157
:102C300088810E94B42E8C01F88483E08F1508F4FB
:102C400084C0F8018581867009F07FC08C849D84E2
:102C5000AE84BF848C819D81AE81BF81892B8A2BFC
:102C60008B2B09F074C0E2E1F7E0A591B4911196C5
:102C70008C9180FD04C060E088E00E948B2460E0BD
:102C800089E00E948B2460E08AE00E948B2460E04F
:102C90008BE00E94B01C80E58CBD1DBC8114F2E16C
:102CA0009F06FAE7AF06B10408F041C0811489E03D
:102CB00098068DE3A806B10418F5E0E88E16E4E85E
:102CC0009E06EEE1AE06B104C0F5F0E48F16F2E424
:102CD0009F06FFE0AF06B10468F580E2881681EA3E
:102CE000980687E0A806B10458F590E0E0E98E1652
:102CF000E0ED9E06E3E0AE06B10428F583E002C0F5
:102D000090E080E0CF2DCC0FCC0FC065C82BF80130
:102D1000C0839183858184608583DF91CF911F91EA
:102D20000F91FF90BF90AF909F908F90089591E08A
:102D300080E0E8CF90E081E0E5CF91E081E0E2CF74
:102D400091E082E0DFCF82E0DDCF0E9409168EE2C3
:102D50000E94EB3E6F927F928F929F92AF92BF92B2
:102D6000CF92DF92EF92FF920F931F93CF93DF9357
:102D70004C01E62E142F6901DC0115967C90159705
:102D8000872D867009F451C071FC39C0F40190811F
:102D900081819CBD8DBDF72DF1706F2E70FCC8C078
:102DA000EE2009F49CC08FEF810F112351F0F60142
:102DB00090819EBD0DB407FEFDCF9EB591938150CD
:102DC000B8F7662091F1072D069506950695402FD8
:102DD00040954170D40112966D917D918C91DF9157
:102DE000CF911F910F91FF90EF90DF90CF90BF9008
:102DF000AF909F908F907F906F900C94E91CED9115
:102E0000FC91418542706681778180850E94E91C32
:102E1000B72DB1706B2E70FC17C0D401CD91DC9131
:102E2000AA24AA94A10E111126C0DF91CF911F915F
:102E30000F91FF90EF90DF90CF90BF90AF909F9059
:102E40008F907F906F900895072D069506950695B3
:102E5000402F4170F4016281738184810E94E91CDA
:102E6000D401CD91DC91AA24AA94A10E112309F4D6
:102E7000AECF66246394B12C8FEFA81AB80AAC0CBD
:102E8000BD1CD601FC9008E010E0898580FF35C0AC
:102E9000EE81FF81888580834F2D40786B817C8116
:102EA0008D810E94E91CFF0CEE81FF818885808363
:102EB000110FE881F98190818A81892391E009F4D9
:102EC00090E0192B015009F7EE2011F0F601108364
:102ED000FFEFCF1ADF0AAC14BD0499F672CFF601EA
:102EE0009601210F311D2E173F0709F46ACF8191FA
:102EF0008EBD0DB407FEFDCFF6CF4F2D40786B8110
:102F00007C818D810E94E91CFF0CEE81FF81888508
:102F10008083110FE881F98190818A81892391E072
:102F200009F490E0192BEE81FF8188858083CACF58
:102F300073FA442740F9F4016281738184810E940D
:102F4000E91C662463942CCFCF93DF93EC0169E8EE
:102F500075E188810E94B42E288539854C8160E016
:102F6000DF91CF910C94AA16FF920F931F93CF93EA
:102F7000DF93EC01188169E875E1812F0E94B42E7E
:102F80000C81F884C9852F2D3C2F402F61E00E94D1
:102F9000AA16CF93FF921F920F931F921F9386EA58
:102FA00096E09F938F930E940D398DB79EB7089638
:102FB0000FB6F8949EBF0FBE8DBFDF91CF911F91CA
:102FC0000F91FF900895AF92BF92DF92EF92FF9220
:102FD0000F931F93CF93DF93FC01A485B58596854E
:102FE00047855089E18822893389F488A588B68885
:102FF0007789008D118DD28C808586279C9384FDE6
:1030000020C085FD22C086FD24C087FD26C09C937C
:10301000862F8295807F808768279C9364FD2AC0D5
:1030200065FD25C066FD1CC067FD1EC09C93DF9139
:10303000CF911F910F91FF90EF90DF90BF90AF90D5
:103040000895EA01E88285FFDECFE901F88286FF74
:10305000DCCFE501788387FFDACFE801D882D7CFCC
:10306000F501708367FFE2CFE801D882DFCFE90185
:10307000F882D8CFFA01E082D3CF5F926F927F922D
:103080008F929F92AF92BF92CF92DF92EF92FF9278
:103090000F931F93CF93DF938C01FC01C080D180ED
:1030A000E280F38084809580A680B78066246A944D
:1030B000660E662301F1EA01712CFFEF6F1A7F0A99
:1030C000640E751E59900E94DD25DC01CB018C1920
:1030D0009D09AE09BF0988159905AA05BB0598F396
:1030E000652DC8010E94E3170E94DD256B017C015C
:1030F000C615D70539F7F801C082D182E282F38282
:10310000DF91CF911F910F91FF90EF90DF90CF90C3
:10311000BF90AF909F908F907F906F905F90089539
:10312000EF92FF920F931F93CF93DF938C016DEF7C
:1031300070E3FC0180810E94B42E7C018FE090E05E
:103140000E94EA38EC0188E893E19E878D87F801B8
:103150008089880F8C8761E084810E94B01C6E8317
:103160007F83888761E0F80184810E948B246883D3
:1031700079838A8361E0F80180850E94B01C6987A9
:103180007A878B8761E0F80180850E948B246B83AE
:103190007C838D83F701D283C183838181608383A4
:1031A000DF91CF911F910F91FF90EF9008950F93B2
:1031B0001F93CF93DF93EC016FE079E188810E9448
:1031C000B42E8C01FC0161857285838541E00E94EB
:1031D000E91C488559856C81C801DF91CF911F9109
:1031E0000F910C943D180F931F93CF93DF93EC0135
:1031F0006FE079E188810E94B42E8C01FC01618529
:103200007285838540E00E94E91C488559856C8160
:10321000C801DF91CF911F910F910C943D18CF926F
:10322000DF92EF92FF920F931F93CF93DF93EC0106
:103230004BE150E06FE079E188810E94852E8C019E
:1032400060E08C810E948B24F801618772878387FC
:1032500060E088850E948B24F801648775878687E3
:1032600060E08C850E948B24F8016787708B818BCE
:1032700060E088890E948B24F801628B738B848BB9
:1032800060E08C890E948B24F801658B768B878B9C
:1032900060E0888D0E948B24F801608F718F828F8F
:1032A000F8940E94DD256B017C0160E0C8010E945A
:1032B000E3170E94DD257894DC01CB018C199D0970
:1032C000AE09BF09CC8CDD8CEE8CFF8C8C159D0576
:1032D000AE05BF0548F4C81AD90AEA0AFB0AF80184
:1032E000C482D582E682F782DF91CF911F910F9140
:1032F000FF90EF90DF90CF900895DF92EF92FF92D2
:103300000F931F93CF93DF93EC01D88883E08D1543
:10331000B0F169E875E188810E94B42E7C018AE0F1
:1033200090E00E94EA388C0161E08C810E94B01C20
:10333000F80160837183828360E088850E948B241A
:10334000F80163837483858360E08C850E948B24FD
:10335000F801668377838087D186F7018581982F6E
:10336000967081F4F7011183008382608583DF9179
:10337000CF911F910F91FF90EF90DF9008958BE117
:103380000E94EB3E0E940916CF92DF92EF92FF92CD
:10339000CF93DF93EC010E94DD256B017C019E0140
:1033A000A0E8BEE30E94953F20E432E44FE050E005
:1033B0000E946C3FC20ED31EE12CF12C0E94DD2531
:1033C0006C157D058E059F05C8F3DF91CF91FF90A9
:1033D000EF90DF90CF9008950F931F93CF93DF93DB
:1033E000EC01062F18E01DC06B817C818D8140E0CF
:1033F0000E94F81C000F8D859E850E94C4196E8165
:103400007F81888541E00E949A1C8D859E850E945F
:10341000C419688179818A8140E00E94F81C1150AA
:1034200049F007FFE1CF69857A858B8541E00E94ED
:103430009A1CE0CF69857A858B8541E00E949A1CB1
:103440008D859E850E94C4196E817F81888541E0AB
:103450000E949A1CE985FA8510818B8518238D8539
:103460009E850E94C419688179818A8140E00E940A
:10347000F81C69857A858B8541E00E949A1C1111A0
:1034800005C0DF91CF911F910F91089585E20E94B1
:10349000EB3E4F925F926F927F928F929F92AF928C
:1034A000BF92CF92DF92EF92FF920F931F93CF9331
:1034B000DF938C01562E3A01FC0180809180A2801E
:1034C000B380C480D580E680F780EA012196FA01B6
:1034D0004080642D607F0E9475360E94DD25DC01EE
:1034E000CB0188199909AA09BB098C159D05AE0560
:1034F000BF0598F3642D6295607FC8010E94753600
:103500000E94DD256B017C01F80180849184A284F6
:10351000B384F1E05F1639F15A945A94852D90E006
:103520000296680E791E5990652D607FC8010E9431
:1035300075360E94DD25DC01CB018C199D09AE0991
:10354000BF0988159905AA05BB0598F3652D6295F5
:10355000607FC8010E9475360E94DD256B017C01E9
:10356000C615D70501F7F801C082D182E282F38245
:10357000DF91CF911F910F91FF90EF90DF90CF904F
:10358000BF90AF909F908F907F906F905F904F9083
:1035900008950F931F93CF93DF938C0180913F0287
:1035A00090914002892B09F04BC060913E0270E07F
:1035B000623071052CF482E080933E0262E070E09C
:1035C000E0913A02F0913B024DB75EB741505F4F38
:1035D00044275A959F01C0E0D0E0C901860F971F8C
:1035E0004817590730F121969C01C115A4E0DA076C
:1035F000A1F78E1B9F0B0E94EA38D0934002C09324
:103600003F0290933D0280933C020E94CC2EF80131
:1036100080819181A281B381809341029093420283
:10362000A0934302B0934402DF91CF911F910F9179
:103630000895209711F0C901DCCF80E10E94EB3E94
:103640008DE00E94EB3ECF932091380230913902F9
:10365000232B91F4FC01C0818C2F90E0880F991FDF
:10366000880F991F0E94EA3890933902809338029C
:10367000C0933702CF9108958AE00E94EB3E80917B
:103680003F02909140029F938F9321E03091270257
:10369000311101C020E01F922F93209144022F93FB
:1036A000209143022F93209142022F9320914102B7
:1036B0002F9321E0892B09F420E01F922F9380EDB6
:1036C00096E09F938F930E940D398DB79EB70C960D
:1036D0000FB6F8949EBF0FBE8DBF0895CF93DF93B2
:1036E000EC01988140913702A0913802B0913902E3
:1036F0000BC0FD0184E0989FE00DF11D1124208195
:1037000031812617370741F09F5F941790F380E0CF
:1037100090E0DF91CF910895988382819381DF912A
:10372000CF910895CF92DF92EF92FF926B017C01CF
:1037300009C00E94DD25292F6C157D058E052F09F6
:1037400027FF09C08091BC0087FFF3CFFF90EF9067
:10375000DF90CF90089580E30E94EB3E24EA20930F
:10376000BC000E94921B8091B90090E0A0E0B0E004
:1037700080319105A105B10521F00897A105B1059A
:1037800009F408958FE20E94EB3E7F928F929F9200
:10379000AF92BF92CF92DF92EF92FF920F931F935F
:1037A000CF93DF93782EC62F942EB52E822E0E94B3
:1037B000DD256B017C0120E8C20E28E3D21E21E04A
:1037C000E21EF11CC701B6010E94AE1B7092BB0045
:1037D00084E88093BC00C701B6010E94921BAA2412
:1037E000AA94AC0ECC23B1F0C92DDB2DB12C8FEFF8
:1037F000A81AB80AAC0EBD1E94E8992E8991809340
:10380000BB009092BC00C701B6010E94921BAC168F
:10381000BD06A1F7C701B6010E94AE1B872D8160CE
:103820008093BB0084E88093BC00C701B6010E946E
:10383000921BDFEFD80D882009F15801CD2F84ECC1
:10384000982ECC2369F09092BC00C701B6010E946B
:10385000921B8091BB00F50181935F01C15099F7E4
:10386000F801ED0FF11DEF0184E88093BC00C70162
:10387000B6010E94921B8091BB00888384E98093EB
:10388000BC00DF91CF911F910F91FF90EF90DF90DF
:10389000CF90BF90AF909F908F907F900895BF92F0
:1038A000CF92DF92EF92FF920F931F93CF93DF930C
:1038B000D82FC62FB42E152F0E94DD256B017C0159
:1038C00020E8C20E28E3D21E21E0E21EF11CC7014F
:1038D000B6010E94AE1BD093BB0084E88093BC006D
:1038E000C701B6010E94921B0FEF0C0FCC23A9F069
:1038F000CB2DD12F10E00F5F1F4F0C0F1D1F84E841
:10390000B82E89918093BB00B092BC00C701B6016C
:103910000E94921BC017D107A1F784E98093BC00D5
:10392000DF91CF911F910F91FF90EF90DF90CF909B
:10393000BF900895FB012FB7F8949281141644F4B8
:10394000982B809592839181892381832FBF08953D
:103950008095982392839181892381832FBF089535
:103960008036A0F567FD32C0E82FE695E695E6952E
:10397000F0E0EE0FFF1FE05FF84FA591B4911097B4
:1039800029F1877021E030E0A90102C0440F551FE2
:103990008A95E2F7CA014FB7F89412963C911297B4
:1039A000662381F0382B282F209512963C9312978E
:1039B00011963C911197232311962C9311974FBF89
:1039C000BD010895282F20953223EFCF8BE20E946E
:1039D000EB3EFB012FB7F8949281411105C0809511
:1039E000892382832FBF0895892B82832FBF089557
:1039F000FB012FB7F8949281411109C0382F3095FF
:103A0000932392839181892B81832FBF0895982BD3
:103A100092839181892B81832FBF0895CF92DF926A
:103A2000EF92CF93DF93EC0161E088859985AA85B9
:103A3000BB85892B8A2B8B2B09F460E08C810E943B
:103A40008B246B01E82E44E250E06EE07DE188813A
:103A50000E94852EFC01C48AD58AE68A21E0488529
:103A600059856A857B85452B462B472B09F420E039
:103A70004C855D856E857F85452B462B472BB1F4A4
:103A800030E0232BFC0123A3488959896A897B896B
:103A9000478B508F618F728F6AE070E04F96DF9195
:103AA000CF91EF90DF90CF900C94162F30E1E9CFBB
:103AB000CF93DF93EC016EE07DE188810E94B42E0C
:103AC000F894FC01278D30A1232B69F44C815D8192
:103AD0006E817F81FC01438F548F658F768F789440
:103AE000DF91CF91089584E10E94EB3E8F929F92E7
:103AF000AF92BF92CF92DF92EF92FF921F93CF933C
:103B0000DF93EC01EF8CF8A0E114F10409F4F0C0AC
:103B1000F7018081918198A38F8F86809780A08400
:103B2000B18411E081149104A104B10409F4A1C08D
:103B30006C897D898E89412F0E94E91C8091480201
:103B400090914902F70191838083F0924902E092BB
:103B5000480281149104A104B104E9F08B8D9C8D7D
:103B6000AD8DBE8D88169906AA06BB06A0F44F89B6
:103B7000588D698D7A8D411551056105710509F4DE
:103B80005BC08C819D81AE81BF81480F591F6A1F28
:103B90007B1F166022C08BA131E081149104A10427
:103BA000B10409F068C084FB992790F921E09227BD
:103BB000391709F443C04F89588D698D7A8D4115A5
:103BC000510561057105D1F18C819D81AE81BF8167
:103BD000480F591F6A1F7B1F1460EF8DF8A13097A3
:103BE00009F077C02BA1488B598B6A8B7B8B207196
:103BF000212B2BA311FF5FC0880D991DAA1DBB1D92
:103C000012FD52C02CE034E33B832A838C839D83D6
:103C1000AE83BF8388869986AA86BB868B8D9C8D52
:103C2000AD8DBE8D88199909AA09BB098C879D871E
:103C3000AE87BF8781E011C012608BA1EF8DF8A124
:103C40003097D9F4188A198A1A8A1B8A8071812BB5
:103C50008BA3812F827011FD34C0DF91CF911F9112
:103C6000FF90EF90DF90CF90BF90AF909F908F909C
:103C7000089510E05DCF30E096CF4281538164819A
:103C80007581488B598B6A8B7B8B8071912F9460E7
:103C9000892B8BA311FF0FC08C819D81AE81BF81C9
:103CA000880D991DAA1DBB1D2B2F84179507A607EC
:103CB000270B27FDA7CF4C835D836E837F8381E035
:103CC000CCCF40E050E0BA018C819D81AE81BF81B4
:103CD00093CFC280D380E480F580872F4C155D059B
:103CE0006E058F0987FD07C08BA1B701A601C9CF5B
:103CF00085E10E94EB3E83E10E94EB3EFC0186855C
:103D000080FF06C0218932892F5F3F4F328B218B84
:103D100081FF0DC0DF01A95BBF4F0D90BC91A02DAD
:103D20002C91DF01A75BBF4F9C91922339F48160F6
:103D300086871092260281E0809347024481558154
:103D40006681778180859185A285B385840F951FD3
:103D5000A61FB71F84839583A683B78381E0089548
:103D6000FC019685916096871092260281E08093EF
:103D7000460280E00895FC0192899160928B109236
:103D8000260281E08093450280E008950F931F93FF
:103D9000CF93DF93FC01C081D181128103816FE455
:103DA0007FE18C2F0E94B42EFC01ED5AFF4F23813E
:103DB0002F9322812F9321812F9320812F93379747
:103DC000808182FB882780F91F928F930F931F9326
:103DD000DF93CF9386E796E09F938F930E940D39F0
:103DE0008DB79EB70C960FB6F8949EBF0FBE8DBFD1
:103DF000DF91CF911F910F9108950F931F93CF9350
:103E0000DF938C016FE47FE1DC018C910E94B42E82
:103E1000EC01F80180859185A285B385FE01E15B07
:103E2000FF4F80839183A283B383892B8A2B8B2BB3
:103E300059F4359711821082C45BDF4F1882DF91ED
:103E4000CF911F910F910895F80184819581A681EA
:103E5000B781FE01ED5AFF4F80839183A283B38324
:103E60006CEA76E2D8011C968C910E94B42EFE0179
:103E7000E65BFF4F918380833396D80150968C91F7
:103E800050978083319654968C918083C45BDF4F2A
:103E900086E08883DF91CF911F910F9108950F9352
:103EA0001F93CF93DF938C0147E550E06FE47FE1F0
:103EB000FC0180810E94852EEC018EE79EE19B83B0
:103EC0008A836DEF70E3F80184810E94B42E9D8790
:103ED0008C87DF91CF911F910F9108950F931F93BE
:103EE000CF93DF938C0147E450E06EE67FE1FC0165
:103EF00080810E94852EEC0180EB9EE19B838A836A
:103F000069E875E1F80184810E94B42E9D878C8751
:103F1000DF91CF911F910F9108950F931F93CF932E
:103F2000DF938C014BE450E06DE87FE1FC01808180
:103F30000E94852EEC018BEB9EE19B838A836DEFC3
:103F400070E3F80184810E94B42E9D878C87DF91F5
:103F5000CF911F910F9108950F931F93CF93DF93EC
:103F60008C016FE47FE1FC0180810E94B42EEC01A2
:103F70000E94343C8E858E7F8E87F80184819581E6
:103F8000A681B7810097A105B105F1F088879987CF
:103F9000AA87BB87188A1F861A8A198A1B8AF894EF
:103FA0000E94DD25088519852A853B85DC01CB012A
:103FB000800F911FA21FB31F8C839D83AE83BF838D
:103FC000CE010E94863C7894DF91CF911F910F9192
:103FD00008950F931F93CF93DF938C0163E37BE3EB
:103FE000FC0180810E94B42EEC010E94343C1E86AC
:103FF000F80180859185A285B385892B8A2B8B2B2F
:1040000029F4DF91CF911F910F91089584819581BB
:10401000A681B7818C839D83AE83BF838085918584
:10402000A285B38588879987AA87BB871B8A1A8A46
:104030001D8A1C8A1E8A8485888BCE01DF91CF91D0
:104040001F910F910C94863C2F923F924F925F925A
:104050006F927F928F929F92AF92BF92CF92DF9298
:10406000EF92FF920F931F93CF93DF9300D01F9295
:104070001F92CDB7DEB73C016DE87FE1DC018C918A
:104080000E94B42E4C018AE38B83D4011C96ED91DF
:10409000FC911D978E010C5F1F4F21E0AE014D5F1B
:1040A0005F4F61E080810E94C51B8C8184FF06C048
:1040B000F401858996890196968B858B82E78D839D
:1040C0000E94DD251B012C01D4011C96ED91FC9171
:1040D0001D978E010F5F1F4F22E0AE014B5F5F4FB8
:1040E00061E080810E94C51B0E94DD2529812F711E
:1040F000A22EB12CBA2CAA242A81A22A0B2C000CA5
:10410000CC08DD087B018C01E218F30804091509CD
:10411000A2019101F3016081C40143960E9412261D
:104120000F900F900F900F900F90DF91CF911F91F4
:104130000F91FF90EF90DF90CF90BF90AF909F9046
:104140008F907F906F905F904F903F902F90089549
:10415000EF92FF920F931F93CF93DF93EC010E9496
:104160004F1F6FE47FE188810E94B42E8C017C0197
:1041700087E4E80EF11C61E088850E94B01CF7011D
:1041800060837183828382E0F8018687DF91CF911B
:104190001F910F91FF90EF9008952F923F924F92B1
:1041A0005F926F927F928F929F92AF92BF92CF92C7
:1041B000DF92EF92FF920F931F93CF93DF931F92A3
:1041C0001F92CDB7DEB73C016EE67FE1FC01808136
:1041D0000E94B42E4C018FEA89831A820E94DD2549
:1041E0001B012C019E012F5F3F4F42E061E0F40173
:1041F000848595850E94AA160E94DD252A812F714B
:10420000F6E02F9F500111240B2C000CCC08DD0888
:104210007B018C01E218F30804091509A201910140
:10422000F3016081C4010F960E9412260F900F9037
:10423000DF91CF911F910F91FF90EF90DF90CF9082
:10424000BF90AF909F908F907F906F905F904F90B6
:104250003F902F9008957F928F929F92AF92BF923E
:10426000CF92DF92EF92FF920F931F93CF93DF9342
:104270007C01DC01DC9163E37BE38D2F0E94B42E93
:104280008C01F701C481B084A184DC011F969C904D
:10429000B2E09B1609F44FC00E94DD256B017C0142
:1042A0002B2D3A2D4C2F61E0D8011C968D919C91BD
:1042B0001D970E94AA160E94DD258B019C010C19F6
:1042C0001D092E093F09013213402105310558F51A
:1042D0004C2F50E0E1E09E1659F1AF92BF925F93F0
:1042E0004F93FF92EF92DF92CF921F92DF938CE772
:1042F00096E09F938F930E940D398DB79EB70C96D1
:104300000FB6F8949EBF0FBE8DBFDF91CF911F9166
:104310000F91FF90EF90DF90CF90BF90AF909F9064
:104320008F907F90089540E050E0E1E09E12D5CF5D
:104330006B017C01D2CFDC011C96ED91FC911D97A5
:1043400094808280738040E0682D772D892D0E94B3
:10435000E91C0E94DD256B017C01B0E1CB0ED11C74
:10436000E11CF11C0E94DD252F2DC616D706E8069C
:10437000290B27FFF7CFF89441E0682D772D892D81
:104380000E94E91C0E94DD256B017C0178942B2D95
:104390003A2D4C2F61E0F801848595850E94AA167C
:1043A0004C2F50E09ACFCF93DF93EC0105969F936B
:1043B0008F938C811F928F9389818F9388818F93A4
:1043C0001F926F938AE696E09F938F930E940D3918
:1043D0001C82888199810196998388838DB79EB7C5
:1043E0000A960FB6F8949EBF0FBE8DBFDF91CF9196
:1043F00008950F931F93CF93DF9300D0CDB7DEB70F
:10440000DC011C96ED91FC911D9788E18B838E0158
:104410000F5F1F4F22E0AE014D5F5F4F61E0808173
:104420000E94C51B89819A819827892798270F9018
:104430000F900F90DF91CF911F910F9108954F92A0
:104440005F926F927F928F929F92AF92BF92CF9224
:10445000DF92EF92FF920F931F93CF93DF934C0164
:104460006FE47FE1FC0180810E94B42EEC018E8517
:1044700081FF31C0F8940E94DD259B01AC01FE0153
:10448000E95BFF4F0190F081E02D9081FE01E75B39
:10449000FF4F8081892378948823D9F1A12CB12CF6
:1044A0006501E12CF12C8701F4016081CE010F96AA
:1044B0000E941226DF91CF911F910F91FF90EF90F4
:1044C000DF90CF90BF90AF909F908F907F906F9034
:1044D0005F904F9008950E94DD252B013C01CE0195
:1044E0000E94F921182F0E94DD2513FD0CC0A12C7C
:1044F000B12C65017B018C01E418F5080609170948
:10450000A3019201D1CF24E0A22EB12CC12CD12C39
:10451000F1CF64E0A62EB12CC12CD12CC2CF0F93C9
:104520001F93CF93DF93EC01F8940E94DD2508855B
:1045300019852A853B85DC01CB01800F911FA21FC5
:10454000B31F8C839D83AE83BF83CE010E94863CC4
:104550007894DF91CF911F910F9108950F931F933E
:10456000CF93DF938C016EE67FE1FC0180810E9496
:10457000B42EEC010E94343C1E86F80184819581A2
:10458000A681B7810097A105B10529F4DF91CF91EC
:104590001F910F91089588879987AA87BB87188AEA
:1045A0001F861A8A198A1B8ACE01DF91CF911F912B
:1045B0000F910C948F220F931F93CF93DF93EC01F5
:1045C000F8940E94DD25088519852A853B85DC0144
:1045D000CB01800F911FA21FB31F8C839D83AE83DD
:1045E000BF83CE010E94863C7894DF91CF911F91CA
:1045F0000F9108950F931F93CF93DF938C016DE874
:104600007FE1FC0180810E94B42EEC010E94343CC9
:104610001A8AF80184819581A681B7810097A10546
:10462000B10529F4DF91CF911F910F9108958887EB
:104630009987AA87BB871C8A1B8A1E8A1D8A1F8AA4
:104640001F861E86198A188ACE01DF91CF911F918D
:104650000F910C94DB228EE10E94EB3E0F931F938F
:10466000CF93DF93FC01A189B2898D919C91119721
:10467000928B818B16968D919C911797C085D185D1
:10468000228521113FC02FB7F894AC0155275983DB
:1046900048832FBF209148023091490211963C93E4
:1046A0002E93B0934902A0934802A189B289109732
:1046B00059F5278530898217930741F083859485C2
:1046C000A585B6850097A105B10531F480E0DF919D
:1046D000CF911F910F910895448155816681778113
:1046E000840F951FA61FB71F84839583A683B78366
:1046F0008BE293E29383828381E0DF91CF911F91DC
:104700000F9108958883C6CF12964D915D916D915A
:104710007C911597278530898217930741F083850F
:104720009485A585B6850097A105B10551F444830C
:1047300055836683778381E0DF91CF911F910F913D
:1047400008950481158126813781800F911FA21F52
:10475000B31F2B2F84179507A607270B27FFE7CF3B
:104760008DE10E94EB3EEF92FF920F931F93CF9348
:10477000DF937C016DE274E2DC018C910E94B42E27
:104780008C010E94302FEC01F70184819581A68174
:10479000B7818A839B83AC83BD83808591859F830A
:1047A0008E83F89419821882D80151968D919C912C
:1047B0005297892BB9F15396ED91FC915497D1837F
:1047C000C0835496DC93CE93539780E090E0789426
:1047D000892B39F4DF91CF911F910F91FF90EF90CA
:1047E0000895C8010E94343CD80112968D919C9185
:1047F00013978B529342F1F08A819B81AC81BD81EA
:104800002EE233E2F8013383228384839583A683E7
:10481000B783C801DF91CF911F910F91FF90EF9067
:104820000C94863CF801D48BC38BD28BC18B81E076
:1048300090E0CDCF8A819B81AC81BD81F80144811C
:10484000558166817781272F481759076A072B0BF7
:1048500027FFD6CF8DE10E94EB3ECF92DF92EF9201
:10486000CF93DF93EC01488559856A857B852C853C
:104870008C810E94442F6B01E82E45E150E06DE2EF
:1048800074E288810E94852EFC01C086D186E28672
:1048900088899989908B87878C899D89AE89BF8902
:1048A00083879487A587B6878EE293E2938382837A
:1048B00068E070E0CF014196DF91CF91EF90DF90FB
:1048C000CF900C94162FB0990FC080914A0290910E
:1048D0004B02019610920602109205029093080274
:1048E0008093070281E0089581E086BB80914A02AF
:1048F00090914B02019690934B0280934A0220E0E4
:1049000030E83093060220930502909308028093CA
:10491000070281E00895803678F5E82FE695E69560
:10492000E695F0E0EE0FFF1FE05FF84FA591B49120
:10493000109711F1877021E030E0A90102C0440F07
:10494000551F8A95E2F7CA013FB7F89412962C9149
:10495000129761110FC04095242312962C93129741
:1049600011962C911197282B11962C9311973FBFDC
:10497000BD010895242BF1CF8CE20E94EB3E1F92E3
:104980000F920FB60F9211240BB60F92EF92FF9277
:104990000F931F932F933F934F935F936F937F9347
:1049A0008F939F93AF93BF93CF93DF93EF93FF9337
:1049B0000DC07A0180918400909185008E199F0925
:1049C00097FD7CC07894B2999AC0F894C091220265
:1049D000D0912302EA81FB81309709F0ADC0EA8DC6
:1049E000FB8D2C8D20838E859F85019709F4C1C096
:1049F0009F878E8788859985AA85BB854C815D8137
:104A00006E817F81480F591F6A1F7B1F4C835D8316
:104A10006E837F8320832CA525FF0EC00C851D850A
:104A2000012E000C220B330B800F911FA21FB31F0E
:104A300088879987AA87BB87E881F98104811581D6
:104A400026813781872F401751076207830B87FD27
:104A5000B0CF7801F0932302E0932202A0912402C8
:104A6000B091250214960D911D912D913C911797AF
:104A7000872F401751076207830B87FFFD01DF0176
:104A80000190F081E02D0481158126813781872FE7
:104A9000401751076207830B87FFF1CFF983E88343
:104AA000CD93DC93D0932502C0932402809184009F
:104AB000909185008E199F0997FF84CF863A9F4F6A
:104AC0000CF06AC0F0928900E0928800FF91EF91AB
:104AD000DF91CF91BF91AF919F918F917F916F9116
:104AE0005F914F913F912F911F910F91FF90EF9008
:104AF0000F900BBE0F900FBE0F901F901895F8945B
:104B000080918400909185009701281B390B2038F3
:104B1000314CDCF12091260227FF43C09C01205C30
:104B2000304E30938B0020938A0024E026BB909374
:104B30008900809388003ECFCE0119954C815D811C
:104B40006E817F81811178CFE881F981E480F580E1
:104B5000F0932302E0932202809124029091250297
:104B6000C817D90709F026CFF0932502E093240255
:104B700021CFCE010E943938EA8DFB8D9C8D908328
:104B80004C815D816E817F81DDCF209127022111D3
:104B9000C1CF8AE20E94EB3E7894B299B0CFF894EC
:104BA00009CF9C012854344F30938B0020938A0006
:104BB00024E026BB7C01F39485CF2FB7F894609155
:104BC00084007091850080914A0290914B02B099C7
:104BD00002C02FBF08952FBF7F3FE1F301960895D4
:104BE00078940E94043D2FEF260F6623C1F0FC014C
:104BF0008FEF9FEF31918327082E8295807F80254C
:104C0000092E982F82958F700826869598278927D8
:104C1000880F880F880F8025215060F708958FEF47
:104C20009FEF08956F927F928F929F92AF92BF9263
:104C3000CF92DF92EF92FF920F931F93FC0183813B
:104C40008F9382818F93848135014601680E711C98
:104C5000811C911CD401C301BF93AF939F936F92AA
:104C600081818F9380818F931F930F93FF92EF9297
:104C70005F934F933F932F931F926F9380E796E03C
:104C80009F938F930E940D398DB79EB744960FB6B0
:104C9000F8949EBF0FBE8DBF1F910F91FF90EF90B4
:104CA000DF90CF90BF90AF909F908F907F906F904C
:104CB00008951F93CF93DF93EC01162FAC89BD8924
:104CC0001097B9F01296ED91FC9113978D919C91EC
:104CD00011979D8B8C8B11961C921E9213961C9291
:104CE0001E921297612FCD011995AC89BD8910973D
:104CF00049F71092260281E080934C02DF91CF9118
:104D00001F910895FC013897968990FF08C0608D27
:104D1000678B9A7F9460968BCF010E94592680E022
:104D20000895FC0186898460868B1092260281E0BA
:104D300080934C0244815581668177818089918975
:104D4000A289B389840F951FA61FB71F84839583FB
:104D5000A683B78381E0089549E150E06CEA76E2EA
:104D6000FC0180810E94852E21E936E2FC0133831B
:104D7000228322E836E2338722870895CF93DC012D
:104D800014969C91149720E030E0C22FF901E05076
:104D9000F94FE4919E1741F02F5F3F4F20313105CD
:104DA000A1F78DE20E94EB3E87E980937A002830DC
:104DB000E8F420917E0081E090E00C2E01C0880F85
:104DC0000A94EAF7822B80937E004FE150E06EEB6D
:104DD00076E28C910E94852EFC0184E097E2938319
:104DE0008283C28F81E0858FCF91089520917D00CD
:104DF0003C2F377081E090E001C0880F3A95EAF7C8
:104E0000822B80937D00E1CFFC0180917A0086FFA8
:104E10000EC084819581A681B7818853984FAF4F8A
:104E2000BF4F84839583A683B78381E00895828DE5
:104E300090910002981781F09F3F59F780930002EC
:104E4000982F987090937B008770806480937C008B
:104E500087ED80937A00DDCF8FEF80930002209161
:104E6000780030917900858D968D891780F5448979
:104E70005589240F351F8F5F358B248B858F8917BC
:104E800060F18689978928173907C8F1808D918D3F
:104E900082179307A0F1138E1092260281E080936F
:104EA0004D02408951896289738980859185A285E7
:104EB000B385840F951FA61FB71F808B918BA28B84
:104EC000B38B84839583A683B78381E0089581E0C3
:104ED000358B248B858F8917A0F644815581668197
:104EE000778184859585A685B785840F951FA61F34
:104EF000B71F84839583A683B78381E00895838D4C
:104F00008F5F838F948D891738F2809127028111EA
:104F1000C2CF8AE10E94EB3EEF92FF921F93CF93A4
:104F2000DF937C01FC0110816CEA76E2812F0E9404
:104F3000B42EEC01F8948E8980FF09C0F7016481DA
:104F40006F8B8A7F84608E8BCE010E945926CE01A2
:104F50000E94343CCE0108960E94343C1E8A8F8900
:104F600078941F921F921F921F921F928F931F92ED
:104F70001F921F921F9382EB96E09F938F930E9444
:104F80000D398DB79EB70C960FB6F8949EBF0FBE25
:104F90008DBFDF91CF911F91FF90EF900895EF9219
:104FA000FF920F931F93CF93DF938C016CEA76E20D
:104FB000FC0180810E94B42EEC01F8948E8980FF60
:104FC00013C07E01F8E0EF0EF11CC7010E94343CD3
:104FD000F80184819581A681B7818C879D87AE87F2
:104FE000BF87C7010E94863C7894DF91CF911F91C3
:104FF0000F91FF90EF900895CF93DF93EC010E9403
:10500000343CCE0108960E94343CEC89FD893097EF
:1050100051F0908181811382128211821082E92FD6
:10502000F82F3097B1F71D8A1C8A188E1F8A1E8AA6
:10503000DF91CF9108950F931F93CF93DF938C014E
:105040006CEA76E2FC0180810E94B42EEC01F894B7
:105050000E94FC2781E08E8BF80184819581A681D6
:10506000B7818C839D83AE83BF8380859185A28524
:10507000B385888B998BAA8BBB8B892B8A2B8B2B27
:1050800019F0CE010E94863CF8018485888F7894BF
:10509000DF91CF911F910F910895FC01968990FFA8
:1050A00007C0678B9A7F9460968BCF010C9459262A
:1050B0000895CF93DF93EC016A8D662309F453C002
:1050C000FC0150E031E020E0A38DB48D4C91958D32
:1050D000942309F0532B2F5F330F33962613F4CF0D
:1050E0002C85922F952729F08D85852780959823EB
:1050F000D9F4888D5D8787FD03C0815070F1888F5A
:105100004C815D816E817F8188859985AA85BB856B
:10511000840F951FA61FB71F8C839D83AE83BF830B
:1051200081E0DF91CF910895982F909529238523D1
:10513000822B8C879E859830E0F621E0290F2E8700
:10514000FE01E90FF11D87871092260281E080930E
:105150004E028FEF888F5D87D3CF1092260291E0A9
:1051600090934E02CCCF50E0BBCF0F931F93CF93C1
:10517000DF938C0162EF78E2FC0180810E94B42E03
:10518000EC010E94343CF80184819581A681B781AD
:105190008C839D83AE83BF834085518562857385F3
:1051A000488759876A877B8780898D878C871E8689
:1051B0001F8A8EEF888F8485898F87FD10C0452BCD
:1051C000462B472B29F4DF91CF911F910F91089522
:1051D000CE01DF91CF911F910F910C94863C8FE10E
:1051E0000E94EB3ECF93FC01C481C930B8F44C2F30
:1051F00050E09A01220F331F420F531F455E5F4F4D
:1052000062EF78E2FC0180810E94852EFC01C28F52
:1052100029E538E233832283CF91089581E20E9409
:10522000EB3E0F931F93CF93DF938C0162EF78E2F5
:10523000DC018C910E94B42EFC01D80114969C9143
:10524000828D9817B8F4292F30E0E901CC0FDD1FCB
:105250002C0F3D1FEF01C20FD31FF801648580851D
:105260000E94B01C6B8F7C8F8D8FDF91CF911F912F
:105270000F91089580E20E94EB3EFC01448155812C
:1052800066817781208580810C94442FFC011092E7
:10529000260281E080934F02818D8160818F44815D
:1052A00055816681778180859185A285B385840F3C
:1052B000951FA61FB71F84839583A683B78381E0BC
:1052C00008950F931F93CF93DF938C0163EA79E2E4
:1052D000FC0180810E94B42EEC010E94343CF80154
:1052E00084819581A681B7818C839D83AE83BF83A2
:1052F00080859185A285B38588879987AA87BB8792
:10530000892B8A2B8B2B29F4DF91CF911F910F9141
:10531000089584859585A685B7858C879D87AE87FA
:10532000BF8780899189A289B389888B998BAA8B41
:10533000BB8B84898E8B1F8ACE01DF91CF911F9109
:105340000F910C94863CFF920F931F93CF93DF93A2
:10535000EC01F88483E08F15E0F04AE150E063EA65
:1053600079E288810E94852E8C0186E499E2F80119
:105370009383828369E875E18C810E94B42EF801E1
:10538000958B848BF08EDF91CF911F910F91FF90C1
:10539000089587E20E94EB3ECF93DF93EC016B818F
:1053A0007C818D8140E00E94F81C8D859E850E9445
:1053B000C4196E817F81888541E00E949A1C8D8589
:1053C0009E850E94C41969857A858B8541E0DF91AD
:1053D000CF910C949A1C1F93CF93DF93EC01162F5F
:1053E0008D859E850E94C41969857A858B8541E0EB
:1053F0000E949A1C6E817F81888541E00E949A1CE0
:105400008D859E850E94C4196B817C818D8140E0D1
:105410000E94F81C8D859E850E94C419688179813F
:105420008A8140E00E94F81C612FCE01DF91CF916C
:105430001F910C94EC198F929F92AF92BF92CF92D2
:10544000EF920F931F93CF93DF93EC014801590123
:105450001F92EF92BF92AF929F920F937F936F93A1
:105460005F934F931F92CF9282E896E09F938F9322
:105470000E940D398DB79EB70E960FB6F8949EBF59
:105480000FBE8DBFE11009C08C859D85AE85BF859F
:1054900088169906AA06BB0688F48F898F5F8F8BC2
:1054A0009E898917B0F4DF91CF911F910F91EF90F2
:1054B000CF90BF90AF909F908F90089588899989E1
:1054C000AA89BB8988159905AA05BB0530F31F8AEF
:1054D000EACF809127028111FACF86E20E94EB3E4B
:1054E0009F92AF92BF92CF92DF92EF92FF920F9373
:1054F0001F93CF93DF93EC01C62E942ED52EB22EA0
:1055000078016C85862F8160A82EC11085C06A2D18
:10551000CE010E94EB298FEF8B0DBB2009F46EC0EA
:105520006701C80ED11C69857A858B8541E00E9490
:105530009A1C08E010E08D859E850E94C4196E813A
:105540007F81888541E00E949A1C8D859E850E94FE
:10555000C419110FE985FA8590818B85892391E023
:1055600009F490E0192B688179818A8140E00E94DA
:10557000F81C015001F769857A858B8541E00E940E
:105580009A1CCE14DF04F1F06B817C818D8140E0A8
:105590000E94F81C8D859E850E94C4196E817F81B2
:1055A000888541E00E949A1C8D859E850E94C419C1
:1055B000688179818A8140E00E94F81CF70111938B
:1055C0007F01B1CF69857A858B8541E00E949A1C65
:1055D0008D859E850E94C4196E817F81888541E0FA
:1055E0000E949A1C8D859E850E94C41968817981CC
:1055F0008A8140E00E94F81CF6011083CE01DF9101
:10560000CF911F910F91FF90EF90DF90CF90BF90BF
:10561000AF909F900C94CC29CE010E94EB29092DCC
:105620001D2DCA94D12CEFEFCE1ADE0AC00ED11E6A
:10563000F80161918F01CE010E94EC19C016D106CC
:10564000B9F765CFDF92EF92FF920F931F93CF933D
:10565000DF937C01C62FD42E152FFC0164850E9498
:10566000EB290FEF0C0FCC2371F0CD2DD12F10E0D3
:105670000F5F1F4F0C0F1D1F6991C7010E94EC198E
:10568000C017D107C9F7C701DF91CF911F910F91C3
:10569000FF90EF90DF900C94CC29CF92DF92EF92A5
:1056A000FF92CF93DF93FC01A085B18582858C9317
:1056B000968581E089278687C82FC170C688D788DC
:1056C000E08CF18C97859F5FD1899D1708F05FC0B2
:1056D000892F869586958695DF01A80FB11D5A966C
:1056E0002C9130E0892F877002C0359527958A95D7
:1056F000E2F72170B701A601C217A9F033C0892FC4
:10570000869586958695DF01A80FB11D5A962C9136
:1057100030E0892F877002C0359527958A95E2F78A
:105720002170C2131FC04C0D5D1D6E1D7F1D9F5F3C
:105730009D1728F382E49EE293838283848195817E
:10574000A681B781480F591F6A1F7B1F4483558369
:105750006683778381E0DF91CF91FF90EF90DF90B8
:10576000CF900895978784819581A681B781480F4E
:10577000591F6A1F7B1F448355836683778381E0AB
:10578000DF91CF91FF90EF90DF90CF900895B70118
:10579000A601D0CF6F927F928F92CF92DF92EF923D
:1057A000FF92CF93DF93EC0160E08C810E948B2409
:1057B0003B01882EC884D984EA84FB84D7FC24C0AA
:1057C000A601415F5F4F6AEC7BE288810E94852ED3
:1057D000FC01608271828282D686C5868C859D8519
:1057E0009483838388899989AA89BB8981879287D1
:1057F000A387B487DF91CF91FF90EF90DF90CF9098
:105800008F907F906F90089584E20E94EB3ECF923C
:10581000DF92EF92FF920F931F93CF93DF93EC01F0
:10582000E885F9858A8580830E94DD253E8521E013
:1058300023272E872F852F5F2F87213009F45CC007
:105840002530E0F40C811D812E813F814A895B89DE
:105850006C897D89DB01CA01800F911FA21FB31FD4
:105860008C839D83AE83BF8381E0DF91CF911F91B5
:105870000F91FF90EF90DF90CF900895CC80DD8066
:10588000EE80FF80AB01BC014C195D096E097F09F8
:105890008E899F89A88DB98D481B590B6A0B7B0B8C
:1058A000DB01CA010296A11DB11DB7FD34C0B5953B
:1058B000A79597958795B595A795979587950A8903
:1058C0001B892C893D89800F911FA21FB31F8E8BCE
:1058D0009F8BA88FB98F2DE43BE23B832A834C0D2D
:1058E0005D1D6E1D7F1D840F951FA61FB71F8C8326
:1058F0009D83AE83BF83B8CF0C811D812E813F81F4
:10590000AB01BC01401B510B620B730B4E8B5F8BC9
:10591000688F798F9BCFDB01CA010596A11DB11D50
:10592000C6CFEF92FF920F931F93CF93DF937C012B
:1059300062E37DE2FC0180810E94B42EEC011E85B1
:1059400011FF07C0DF91CF911F910F91FF90EF9052
:105950000895F701048160857185F4840B3008F0A7
:1059600045C0FAE0FF1508F441C0402F50E04A96C8
:105970000E940C401F86117312601E87802F880FB3
:10598000880F880F898BFF0CFF0CFF0CF88A00230F
:1059900049F08A8D8F738A3229F487E09CE29B83D9
:1059A0008A830CC08A899B89AC89BD898E8B9F8B29
:1059B000A88FB98F8DE49BE29B838A83F8940E9421
:1059C000DD25DC01CB018058934FAF4FBF4F8C8357
:1059D0009D83AE83BF83CE010E94863C7894DF9185
:1059E000CF911F910F91FF90EF90089582E20E9456
:1059F000EB3E0F931F93CF93DF938C0162EF78E21E
:105A0000DC018C910E94B42EEC01D8011496EC912B
:105A10008F898E0F8F8BF8948E85E817D0F48E1BAC
:105A2000F0E03F96EC0FFD1FDE011F962FEF280FD1
:105A300030E0205F3F4F2C0F3D1F91919D93A217A7
:105A4000B307D9F78E877894DF91CF911F910F918B
:105A500008951E868EEF888F7894DF91CF911F91E5
:105A60000F9108957F928F929F92AF92BF92CF92A3
:105A7000DF92EF92FF920F931F93CF93DF93EC018E
:105A800044E250E062E37DE288810E94852E8C0131
:105A900078848C809D80AE80BF80CC84DD84EE8451
:105AA000FF8461E0711001C060E0882D0E94B01C8D
:105AB000F80163877487858761E08C2D0E948B24B1
:105AC000F80160877187828788899989AA89BB894B
:105AD000828B938BA48BB58B711018C091E08C14C2
